{
  "contractName": "Tickets",
  "abi": [
    {
      "inputs": [],
      "stateMutability": "nonpayable",
      "type": "constructor"
    },
    {
      "inputs": [],
      "name": "owner",
      "outputs": [
        {
          "internalType": "address",
          "name": "",
          "type": "address"
        }
      ],
      "stateMutability": "view",
      "type": "function",
      "constant": true
    },
    {
      "inputs": [
        {
          "internalType": "uint256",
          "name": "",
          "type": "uint256"
        }
      ],
      "name": "tickets",
      "outputs": [
        {
          "internalType": "uint256",
          "name": "price",
          "type": "uint256"
        },
        {
          "internalType": "address",
          "name": "owner",
          "type": "address"
        },
        {
          "internalType": "uint256",
          "name": "endTime",
          "type": "uint256"
        }
      ],
      "stateMutability": "view",
      "type": "function",
      "constant": true
    },
    {
      "inputs": [
        {
          "internalType": "uint256",
          "name": "",
          "type": "uint256"
        }
      ],
      "name": "ticketss",
      "outputs": [
        {
          "internalType": "uint256",
          "name": "price",
          "type": "uint256"
        },
        {
          "internalType": "address",
          "name": "owner",
          "type": "address"
        },
        {
          "internalType": "uint256",
          "name": "endTime",
          "type": "uint256"
        }
      ],
      "stateMutability": "view",
      "type": "function",
      "constant": true
    },
    {
      "inputs": [
        {
          "internalType": "uint256",
          "name": "",
          "type": "uint256"
        }
      ],
      "name": "tokenURIs",
      "outputs": [
        {
          "internalType": "string",
          "name": "",
          "type": "string"
        }
      ],
      "stateMutability": "view",
      "type": "function",
      "constant": true
    },
    {
      "inputs": [
        {
          "internalType": "uint256",
          "name": "_index",
          "type": "uint256"
        }
      ],
      "name": "buyTicket",
      "outputs": [],
      "stateMutability": "payable",
      "type": "function",
      "payable": true
    }
  ],
  "bytecode": "0x608060405233600260006101000a81548173ffffffffffffffffffffffffffffffffffffffff021916908373ffffffffffffffffffffffffffffffffffffffff16021790555034801561005157600080fd5b5060005b60038110156100f55760018161006b9190610134565b67016345785d8a000061007e919061018a565b60038260038110610092576100916101e4565b5b6003020160000181905550620151806001826100ae9190610134565b6100b8919061018a565b426100c39190610134565b600382600381106100d7576100d66101e4565b5b600302016002018190555080806100ed90610213565b915050610055565b5061025b565b6000819050919050565b7f4e487b7100000000000000000000000000000000000000000000000000000000600052601160045260246000fd5b600061013f826100fb565b915061014a836100fb565b9250827fffffffffffffffffffffffffffffffffffffffffffffffffffffffffffffffff0382111561017f5761017e610105565b5b828201905092915050565b6000610195826100fb565b91506101a0836100fb565b9250817fffffffffffffffffffffffffffffffffffffffffffffffffffffffffffffffff04831182151516156101d9576101d8610105565b5b828202905092915050565b7f4e487b7100000000000000000000000000000000000000000000000000000000600052603260045260246000fd5b600061021e826100fb565b91507fffffffffffffffffffffffffffffffffffffffffffffffffffffffffffffffff82036102505761024f610105565b5b600182019050919050565b6106218061026a6000396000f3fe60806040526004361061004a5760003560e01c806350b447121461004f57806367dd74ca1461008e5780636c8b703f146100aa5780638da5cb5b146100e7578063a6869af114610112575b600080fd5b34801561005b57600080fd5b50610076600480360381019061007191906103d2565b610151565b6040516100859392919061044f565b60405180910390f35b6100a860048036038101906100a391906103d2565b6101a1565b005b3480156100b657600080fd5b506100d160048036038101906100cc91906103d2565b61026b565b6040516100de919061051f565b60405180910390f35b3480156100f357600080fd5b506100fc610317565b6040516101099190610541565b60405180910390f35b34801561011e57600080fd5b50610139600480360381019061013491906103d2565b61033d565b6040516101489392919061044f565b60405180910390f35b6003816003811061016157600080fd5b600302016000915090508060000154908060010160009054906101000a900473ffffffffffffffffffffffffffffffffffffffff16908060020154905083565b6003811080156101b2575060008110155b6101bb57600080fd5b600381600381106101cf576101ce61055c565b5b60030201600001543410156101e357600080fd5b33600382600381106101f8576101f761055c565b5b6003020160010160006101000a81548173ffffffffffffffffffffffffffffffffffffffff021916908373ffffffffffffffffffffffffffffffffffffffff160217905550600180600083815260200190815260200160002060006101000a81548160ff02191690831515021790555050565b6000818154811061027b57600080fd5b906000526020600020016000915090508054610296906105ba565b80601f01602080910402602001604051908101604052809291908181526020018280546102c2906105ba565b801561030f5780601f106102e45761010080835404028352916020019161030f565b820191906000526020600020905b8154815290600101906020018083116102f257829003601f168201915b505050505081565b600260009054906101000a900473ffffffffffffffffffffffffffffffffffffffff1681565b600c818154811061034d57600080fd5b90600052602060002090600302016000915090508060000154908060010160009054906101000a900473ffffffffffffffffffffffffffffffffffffffff16908060020154905083565b600080fd5b6000819050919050565b6103af8161039c565b81146103ba57600080fd5b50565b6000813590506103cc816103a6565b92915050565b6000602082840312156103e8576103e7610397565b5b60006103f6848285016103bd565b91505092915050565b6104088161039c565b82525050565b600073ffffffffffffffffffffffffffffffffffffffff82169050919050565b60006104398261040e565b9050919050565b6104498161042e565b82525050565b600060608201905061046460008301866103ff565b6104716020830185610440565b61047e60408301846103ff565b949350505050565b600081519050919050565b600082825260208201905092915050565b60005b838110156104c05780820151818401526020810190506104a5565b838111156104cf576000848401525b50505050565b6000601f19601f8301169050919050565b60006104f182610486565b6104fb8185610491565b935061050b8185602086016104a2565b610514816104d5565b840191505092915050565b6000602082019050818103600083015261053981846104e6565b905092915050565b60006020820190506105566000830184610440565b92915050565b7f4e487b7100000000000000000000000000000000000000000000000000000000600052603260045260246000fd5b7f4e487b7100000000000000000000000000000000000000000000000000000000600052602260045260246000fd5b600060028204905060018216806105d257607f821691505b6020821081036105e5576105e461058b565b5b5091905056fea2646970667358221220b1427397ef16d71dca16504b57d60e6f72fd0899866593024df41496e4003b9164736f6c634300080e0033",
  "immutableReferences": {},
  "source": "// SPDX-License-Identifier: MIT\r\npragma solidity >=0.8.0 <0.9.0;\r\n\r\nuint256 constant TOTAL_TICKETS = 3;\r\n\r\ncontract Tickets {\r\n  string[] public tokenURIs;\r\n  mapping(uint256 => bool) _tokenURIExists;\r\n  address public owner = msg.sender;\r\n\r\n  struct Ticket {\r\n    uint256 price;\r\n    address owner;\r\n    uint256 endTime;\r\n  }\r\n\r\n  Ticket[TOTAL_TICKETS] public tickets;\r\n  Ticket[] public ticketss;\r\n\r\n  constructor() {\r\n    for (uint256 i = 0; i < TOTAL_TICKETS; i++) {\r\n      tickets[i].price = 1e17 * (i + 1); // 0.1 ETH\r\n      // tickets[i].owner = address(0x0); // not defined\r\n      tickets[i].endTime = block.timestamp + ((i + 1) * 1 days);\r\n    }\r\n  }\r\n\r\n  function buyTicket(uint256 _index) external payable {\r\n    require(_index < TOTAL_TICKETS && _index >= 0);\r\n    // require(tickets[_index].owner == address(0x0));\r\n    require(msg.value >= tickets[_index].price);\r\n    tickets[_index].owner = msg.sender;\r\n    _tokenURIExists[_index] = true;\r\n  }\r\n}\r\n",
  "sourcePath": "C:\\Users\\Administrator\\Documents\\GitHub\\rinkeby_test\\contracts\\Tickets.sol",
  "compiler": {
    "name": "solc",
    "version": "0.8.14+commit.80d49f37.Emscripten.clang"
  },
  "schemaVersion": "3.4.7",
  "updatedAt": "2022-05-31T08:29:32.808Z",
  "networkType": "ethereum",
  "devdoc": {
    "kind": "dev",
    "methods": {},
    "version": 1
  },
  "userdoc": {
    "kind": "user",
    "methods": {},
    "version": 1
  }
}